:100000001DC041C040C03FC03EC063C33CC03BC0F8
:100010003AC039C038C037C036C035C034C0C8A1B6
:10002000AD308D14000038000037010204081020A4
:1000300000003602020202020200320511241FBE35
:10004000CFE5D2E0DEBFCDBF21E0ACE6B0E001C03D
:100050001D92AA36B207E1F710E0A0E6B0E0E4E3B3
:10006000FBE002C005900D92AC36B107D9F710E065
:10007000CEE1D0E003C02197FE0150D5CD31D107AC
:10008000D1F7A3D355C5BCCFCF92DF92EF92FF92A9
:100090000F931F93CF93DF936C01EB017B01E40E71
:1000A000F51E10E000E0CE15DF0561F06991D60184
:1000B000ED91FC910190F081E02DC6010995080FAA
:1000C000191FF1CFC801DF91CF911F910F91FF90C0
:1000D000EF90DF90CF9008953FB7F894809187001C
:1000E00090918800A0918900B0918A0022B708B64B
:1000F00001FE05C02F3F19F00196A11DB11D3FBFA4
:10010000BA2FA92F982F8827BC01CD01620F711D2E
:10011000811D911D43E0660F771F881F991F4A9527
:10012000D1F708958F929F92AF92BF92CF92DF92B4
:10013000EF92FF920F931F93FC01818182FD14C007
:1001400085FD12C0A489B5892C91368981FB992738
:1001500090F983FB882780F98927922F932321E048
:1001600009F020E08227828B8FB7F89440918D00B0
:1001700050918E0060918F00709190008FBF928996
:1001800023898081992309F479C0211177C080FDEA
:100190005BC08160808346875787608B718B8389C2
:1001A000882319F1992309F10581168130E020E0B7
:1001B000C684D784E088F1884A015B018C189D08C9
:1001C000AE08BF0875016401C016D106E206F30649
:1001D00060F0808181FD09C0238525878A648F773F
:1001E000808346875787608B718B068517852089AA
:1001F0003189401B510B620B730B0781108530E076
:1002000020E0401751076207730750F08385882369
:1002100039F0911105C084871386808184608083C2
:10022000818186FF06C0148690819B7F90838F7B9F
:1002300081831F910F91FF90EF90DF90CF90BF903F
:10024000AF909F908F9008950685178520893189FA
:100250006A017B01C01AD10AE20AF30A0381148100
:1002600030E020E0C016D106E206F30608F4BDCF68
:1002700021E0238B80628068808391CF8E7F808392
:1002800091118DCF222309F4B0CF138A81FD03C0D1
:1002900083858F5F838780818D7F806180834687A0
:1002A0005787608B718B86FF04C0148613868F7B03
:1002B0008083808187FF99CF8F7780838181816060
:1002C00081836DCFCF93DF93EC01898184FF02C0DE
:1002D000CE0128DF888182FF0AC08C85813039F405
:1002E00089818064898381E0DF91CF91089580E0E6
:1002F000FBCFCF93DF93EC01898184FF02C0CE0155
:1003000011DF888186FB882780F9DF91CF910895DE
:10031000E0918200F09183000994E0918000F091D7
:1003200081000994E0918400F0918500099580E4B2
:10033000F4CFCF93C82FF1DF811104C0E9DFF2DFE2
:100340008C2FEBDF809165018F5F80936501CF91EA
:100350000895E0918400F0918500099580E0DDCF5B
:100360000F931F93CF93DF93082F162FD09169011E
:10037000D80FC0916801C60FC770C06BEADF8C2F21
:10038000CCDF8D2F82958F708061C7DF8D2F8F70AE
:10039000C4DFBEDF00936701109366011092650110
:1003A000DF91CF911F910F9108951F93CF93DF930A
:1003B000C0E080916200C817B0F46C2F80E0D0DFFD
:1003C0008091610090916701182F191B51F0809363
:1003D0006701A8DFD0E080E0ACDFDF5F1D13FBCF5B
:1003E00097DFCF5FE6CF60E080E0DF91CF911F9194
:1003F000B7CF10927E0088E780936C0081E008956B
:10040000E0917E00E13148F4EF5FE0937E00F0E0A0
:10041000E459FF4F808381E0089580E0089581E0F2
:1004200090E00895CF93DF93EC018CE390E09C8300
:100430008B8384EF91E09E838D8398878F8380E9FF
:1004400091E09A8789871B861C861D861E861F86DB
:10045000188A198A1A8A1B8A6A8389818F7D877F05
:100460008983062E000C770BFB01E65DFF4F84911C
:100470006D5C7F4FFB0164916623D1F0262F30E045
:10048000F901E95DFF4FE4914E2F50E02C5D3F4FA5
:10049000F9012491A22FB0E02FB7F894FA0130812E
:1004A000982F909593239083EC91E82BEC932FBF9A
:1004B0002A81F0E0E0E0263030F4E22FF0E0ED5C5D
:1004C000FF4FE491F0E0E05DFF4FE491F0E0FD8B41
:1004D000EC8BEFEF263028F4E22FF0E0E65DFF4FE3
:1004E000E491EE8B89818B7E8D7F8983DF91CF9123
:1004F00008951AD3C29AC29BFECF8DE08A95F1F778
:100500000000C0988AE08A95F1F700C0C298C09AAE
:10051000779905C083E080937F0080E0089581E0B3
:1005200008958EB98BE29DE09A95F1F700008DB9A0
:10053000B29BFECF9AE09A95F1F700C08DB9769BF9
:10054000F2CF8DE08A95F1F700008FB19FEF9FB950
:10055000B89A0895CF92DF92EF92FF920F931F9374
:10056000CF93DF9300917E0081E080937F008091A4
:100570006C0080FD03C083E080937F00BBDF882395
:1005800011F10F5F102FCCE6D0E0DD24DA94CC24FB
:10059000C3947E018FEFE81AF80A80917F00837080
:1005A00009F44AC0C29888818FB980EFBADFB89841
:1005B0008EEFB7DF90917F0080FF12C081E090FF47
:1005C00082E080937F0010927E0080917F00DF9117
:1005D000CF911F910F91FF90EF90DF90CF900895F2
:1005E000892F8570843061F480916C0081608093E4
:1005F0006C00C0927F007EDF81112AC08AE0E1CFCB
:100600009E7F90937F00E701115009F0C2CF1092B6
:100610007E00C098C29AB29BFECF8AE08A95F1F71D
:1006200000C0C09A8DE08A95F1F70000759914C05A
:1006300084E080937F00CBCFB89880EF72DF88830F
:10064000113021F4DFB88EEF6CDFDDCF1FB8FBCFA8
:10065000102FCCE6D0E0D8CF80E0B9CFCF92DF9298
:10066000EF92FF92CF93DF93C09AC29ABA9AB89A48
:100670008FEF8FB98AE28DB980EF8EB9BADE6ADF6B
:10068000882301F129DDEB018AE0C82ED12CE12C71
:10069000F12C22DD6C1B7D0B683E734068F0C114A9
:1006A000D104E104F10451F381E0C81AD108E10852
:1006B000F108C851DC4FEDCFC114D104E104F104BD
:1006C00041F7DCCFDF91CF91FF90EF90DF90CF909B
:1006D00008951F920F920FB60F9211242F933F93FC
:1006E0008F939F93AF93BF9380918D0090918E00D5
:1006F000A0918F00B09190003091860026E0230FEA
:100700002D3768F129E8230F0396A11DB11D209311
:10071000860080938D0090938E00A0938F00B093FD
:1007200090008091870090918800A0918900B091FD
:100730008A000196A11DB11D8093870090938800C7
:10074000A0938900B0938A00BF91AF919F918F9140
:100750003F912F910F900FBE0F901F90189502960A
:10076000A11DB11DD4CF0F931F93CF93DF93082FFB
:100770001CDEC0E011E08C2F602FC4D1D82F63E0C5
:100780008C2FEEDDCFDD80E8D4DDC2DDED2FF0E093
:10079000EF51FF4FD081D03408F0DFE36D2F669525
:1007A000669566958C2FDCDDBDDDD770812F01C08D
:1007B000880FDA95EAF7BDDDABDDCF5FC038D9F63B
:1007C000DF91CF911F910F910895CF93DF931F92E7
:1007D000CDB7DEB71982898183BB81E2E1E0F0E029
:1007E00080935700849181BF000083E08ABD83BF5E
:1007F000789489B7826089BF80E48CBD87EC80BF24
:1008000086E886B9109269011092680180E88093A9
:10081000610088E080936200E0918B00F0918C0091
:10082000099597DD0EE110E0F801F4908F2D75DD4C
:10083000811104C06DDD8DDD8F2D6FDD0F5F1F4FCA
:10084000F0E004321F0781F763DDAFDD82DD8FEA60
:1008500064DD5EDD84EF91E09093D0008093CF0063
:100860009093B9008093B8009093A2008093A10068
:1008700011E003E08AEC90E055DC83EB90E052DC81
:100880008CE990E04FDC8CE990E01CDD882329F0B6
:10089000809160008F5F809360008CE990E029DD9B
:1008A00081111093600080919D0084FF03C08CE94A
:1008B00090E038DC80919C0082FF10C08091A800FD
:1008C000833061F480919D00806480939D0010E0EE
:1008D00060E0812F90E008D11F5FFACF8AEC90E0B2
:1008E00008DD882341F081E090919B00911180E028
:1008F00080939B00BFCF8AEC90E0E4DC882349F032
:100900008091910090E001968170992780939100E9
:10091000B1CF83EB90E0EDDCF0909B00882329F0D1
:10092000F11003C010939A00A5CF83EB90E0CADCCE
:10093000882301F1FF20F1F071EEC72E70E0D72E71
:10094000F12CE12C8091910090E09695982F8827CA
:10095000979587958E0D9F1DBFD0F60181936F01EE
:10096000FFEFEF1AFF0A80E8E816F10459F78091CB
:100970006000F9DE80919B0081117CCF2FB7F89445
:1009800080918D0090918E00A0918F00B091900089
:100990002FBF40919200509193006091940070910C
:1009A00095006C017D01C41AD50AE60AF70A409148
:1009B0009600509197006091980070919900C4162C
:1009C000D506E606F70608F455CF8093920090937B
:1009D0009300A0939400B093950080919A00E1EE6B
:1009E000F0E020E08823F1F010929A0051EEC52E3D
:1009F00050E0D52EF12CE12CF60161916F01809130
:100A0000910090E09695982F8827979587958E0D61
:100A10009F1D6AD0FFEFEF1AFF0A80E8E816F10485
:100A200059F728CF86B1807C803889F08034B9F4BA
:100A300082E090E834E0969587953A95E1F78193C6
:100A40002F5F203879F7809160008DDE13CF07B9D2
:100A50001D98369A3699FECF84B195B1EBCF81E0DF
:100A600090E8E8CFE1E6F1E0138212828EE293E0B3
:100A700090938C0080938B0089EF91E09093850098
:100A80008093840080E092E09093810080938000C6
:100A90008AEA92E0909383008093820087E690E058
:100AA00091838083E2E9F0E0108211821282138246
:100AB0008CED95E0A0E0B0E084839583A683B783B6
:100AC00065E08AEC90E0AEDC61E083EB90E0AADCCC
:100AD00064E08CE990E0A6CCE199FECF9FBB8EBB91
:100AE000E09A99278DB30895262FE199FECF1CBA7D
:100AF0009FBB8EBB2DBB0FB6F894E29AE19A0FBE56
:100B000001960895991B79E004C0991F961708F083
:100B1000961B881F7A95C9F780950895EE0FFF1FE1
:100B20000590F491E02D099481E090E0F89400C0E4
:040B3000F894FFCF67
:0C0B3400018004000000000F02440000DB
:00000001FF
