:100000001DC041C040C03FC03EC09CC33CC03BC0BF
:100010003AC039C038C037C036C035C034C0C8A1B6
:10002000AD308D14000038000037010204081020A4
:1000300000003602020202020200080511241FBE5F
:10004000CFE5D2E0DEBFCDBF21E0ACE6B0E001C03D
:100050001D92AB3EB207E1F710E0A0E6B0E0E4EBA2
:10006000FAE002C005900D92AC36B107D9F710E066
:10007000CEE1D0E003C02197FE0110D5CD31D107EC
:10008000D1F7AAD315C5BCCFCF92DF92EF92FF92E2
:100090000F931F93CF93DF936C01EB017B01E40E71
:1000A000F51E10E000E0CE15DF0561F06991D60184
:1000B000ED91FC910190F081E02DC6010995080FAA
:1000C000191FF1CFC801DF91CF911F910F91FF90C0
:1000D000EF90DF90CF9008953FB7F894809187001C
:1000E00090918800A0918900B0918A0022B708B64B
:1000F00001FE05C02F3F19F00196A11DB11D3FBFA4
:10010000BA2FA92F982F8827BC01CD01620F711D2E
:10011000811D911D43E0660F771F881F991F4A9527
:10012000D1F708958F929F92AF92BF92CF92DF92B4
:10013000EF92FF920F931F93FC01818182FD14C007
:1001400085FD12C0A489B5892C91368981FB992738
:1001500090F983FB882780F98927922F932321E048
:1001600009F020E08227828B8FB7F89440918D00B0
:1001700050918E0060918F00709190008FBF928996
:1001800023898081992309F479C0211177C080FDEA
:100190005BC08160808346875787608B718B8389C2
:1001A000882319F1992309F10581168130E020E0B7
:1001B000C684D784E088F1884A015B018C189D08C9
:1001C000AE08BF0875016401C016D106E206F30649
:1001D00060F0808181FD09C0238525878A648F773F
:1001E000808346875787608B718B068517852089AA
:1001F0003189401B510B620B730B0781108530E076
:1002000020E0401751076207730750F08385882369
:1002100039F0911105C084871386808184608083C2
:10022000818186FF06C0148690819B7F90838F7B9F
:1002300081831F910F91FF90EF90DF90CF90BF903F
:10024000AF909F908F9008950685178520893189FA
:100250006A017B01C01AD10AE20AF30A0381148100
:1002600030E020E0C016D106E206F30608F4BDCF68
:1002700021E0238B80628068808391CF8E7F808392
:1002800091118DCF222309F4B0CF138A81FD03C0D1
:1002900083858F5F838780818D7F806180834687A0
:1002A0005787608B718B86FF04C0148613868F7B03
:1002B0008083808187FF99CF8F7780838181816060
:1002C00081836DCFCF93DF93EC01898184FF02C0DE
:1002D000CE0128DF888182FF0AC08C85813039F405
:1002E00089818064898381E0DF91CF91089580E0E6
:1002F000FBCFE0918400F09185000994E0918200A9
:10030000F09183000994E0918000F09181000994BC
:10031000CF93C82FF3DF811106C0EBDFF4DF80E459
:10032000EDDF8C2FEBDF8091E6018F5F8093E6019C
:10033000CF910895E8DF80E0E1CF0F931F93CF9333
:10034000DF93082F162FD091EA01D80FC091E90151
:10035000C60FC770C06BEEDF8C2FD0DF8D2F82955C
:100360008F708061CBDF8D2F8F70C8DFC2DF00936D
:10037000E8011093E7011092E601DF91CF911F9100
:100380000F9108951F93CF93DF93C0E08091620097
:10039000C817C0F46C2F80E0D0DF8091610090918D
:1003A000E801182F191B61F08093E801ACDF80E4AD
:1003B000A5DFD0E080E0ACDFDF5F1D13FBCF99DF6E
:1003C000CF5FE4CF60E080E0DF91CF911F91B5CFA8
:1003D000EF92FF920F931F93CF93DF93F82EE62EA9
:1003E000D1DF10E000E0D1E0202F0038110599F1B5
:1003F000802F6F2D47D390E0EE2091F0E091E00147
:10040000F091E101F695FE2FEE27F795E795E05282
:10041000FF4FE00FF11FDC01A05ABE4F3C9130832B
:10042000805A9E4FFC01C081C03408F0CFE36C2F8E
:10043000669566956695822F80DF65DF80E45EDFD6
:10044000C7708D2F01C0880FCA95EAF761DF51DFB1
:100450000F5F1F4FC9CFDF91CF911F910F91FF9079
:10046000EF90089510927E0088E780936C0081E001
:100470000895E0917E00E13148F4EF5FE0937E0063
:10048000F0E0E459FF4F808381E0089580E0089513
:1004900081E090E00895CF93DF93EC018CE390E04E
:1004A0009C838B8384EF91E09E838D8398878F83D9
:1004B00080E991E09A8789871B861C861D861E86A7
:1004C0001F86188A198A1A8A1B8A6A8389818F7DF6
:1004D000877F8983062E000C770BFB01E65DFF4FBB
:1004E00084916D5C7F4FFB0164916623D1F0262FD0
:1004F00030E0F901E95DFF4FE4914E2F50E02C5DB3
:100500003F4FF9012491A22FB0E02FB7F894FA01E0
:100510003081982F909593239083EC91E82BEC9366
:100520002FBF2A81F0E0E0E0263030F4E22FF0E047
:10053000ED5CFF4FE491F0E0E05DFF4FE491F0E00F
:10054000FD8BEC8BEFEF263028F4E22FF0E0E65D38
:10055000FF4FE491EE8B89818B7E8D7F8983DF91C4
:10056000CF910895A1D2C29AC29BFECF8DE08A9509
:10057000F1F70000C0988AE08A95F1F700C0C298B0
:10058000C09A779905C083E080937F0080E008954A
:1005900081E008958EB98BE29DE09A95F1F7000015
:1005A0008DB9B29BFECF9AE09A95F1F700C08DB954
:1005B000769BF2CF8DE08A95F1F700008FB19FEF27
:1005C0009FB9B89A0895CF92DF92EF92FF920F935E
:1005D0001F93CF93DF9300917E0081E080937F0093
:1005E00080916C0080FD03C083E080937F00BBDFBF
:1005F000882311F10F5F102FCCE6D0E0DD24DA94D0
:10060000CC24C3947E018FEFE81AF80A80917F0012
:10061000837009F44AC0C29888818FB980EFBADF2D
:10062000B8988EEFB7DF90917F0080FF12C081E015
:1006300090FF82E080937F0010927E0080917F0087
:10064000DF91CF911F910F91FF90EF90DF90CF90AE
:100650000895892F8570843061F480916C008160E9
:1006600080936C00C0927F007EDF81112AC08AE0F7
:10067000E1CF9E7F90937F00E701115009F0C2CF38
:1006800010927E00C098C29AB29BFECF8AE08A95F3
:10069000F1F700C0C09A8DE08A95F1F700007599D6
:1006A00014C084E080937F00CBCFB89880EF72DFD6
:1006B0008883113021F4DFB88EEF6CDFDDCF1FB8F7
:1006C000FBCF102FCCE6D0E0D8CF80E0B9CFCF92CF
:1006D000DF92EF92FF92CF93DF93C09AC29ABA9AB9
:1006E000B89A8FEF8FB98AE28DB980EF8EB9BADEF2
:1006F0006ADF882301F1F0DCEB018AE0C82ED12CFF
:10070000E12CF12CE9DC6C1B7D0B683E734068F03A
:10071000C114D104E104F10451F381E0C81AD108F5
:10072000E108F108C851DC4FEDCFC114D104E10458
:10073000F10441F7DCCFDF91CF91FF90EF90DF9094
:10074000CF9008951F920F920FB60F9211242F93FE
:100750003F938F939F93AF93BF9380918D00909120
:100760008E00A0918F00B09190003091860026E01D
:10077000230F2D3768F129E8230F0396A11DB11D22
:100780002093860080938D0090938E00A0938F001D
:10079000B09390008091870090918800A09189008B
:1007A000B0918A000196A11DB11D8093870090939E
:1007B0008800A0938900B0938A00BF91AF919F9168
:1007C0008F913F912F910F900FBE0F901F90189512
:1007D0000296A11DB11DD4CFCF93DF931F92CDB749
:1007E000DEB71982898183BB81E2E1E0F0E080938A
:1007F0005700849181BF000083E08ABD83BF789455
:1008000089B7826089BF80E48CBD87EC80BF86E8B1
:1008100086B91092EA011092E90180E880936100A4
:1008200088E080936200E0918B00F0918C00099544
:1008300081DD0EE110E0F801F4908F2D5FDD811174
:1008400004C057DD77DD8F2D59DD0F5F1F4FF0E0BE
:1008500004321F0781F74DDD95DD6CDD8FEA4EDD3B
:1008600048DD84EF91E09093CF008093CE00909389
:10087000B8008093B7009093A1008093A00011E08E
:1008800003E089EC90E04EDC82EB90E04BDC8BE9FE
:1008900090E048DC8BE990E015DD882329F0809119
:1008A00060008F5F8093600080919C0084FF03C094
:1008B0008BE990E037DC80919B0086FD109360000F
:1008C00089EC90E0FFDC882341F081E090919A0070
:1008D000911180E080939A00D4CF89EC90E0F2DC13
:1008E000882329F01092E1011092E001CACF809193
:1008F000B30084FF03C082EB90E014DC80919A0087
:100900009091B20096FF05C0811105C01093990027
:10091000B8CF882319F182EB90E0D4DC882309F466
:10092000B0CFA0E6B1E02091E0013091E101369531
:10093000322F22273795279590E080E0F901E80FC4
:10094000F91FE052FF4F40814D9301968038910589
:10095000A9F78091600060E03BDD93CF2FB7F8945A
:1009600080918D0090918E00A0918F00B0919000A9
:100970002FBF40919100509192006091930070912F
:1009800094006C017D01C41AD50AE60AF70A409169
:100990009500509196006091970070919800C41650
:1009A000D506E606F70608F46CCF80939100909385
:1009B0009200A0939300B0939400809199008111CC
:1009C00014C0E0E6F1E020E086B1807C8038A9F038
:1009D0008034D9F482E090E834E0969587953A9592
:1009E000E1F781932F5F203879F780916000609163
:1009F0009900EEDC1092990044CF07B91D98369A01
:100A00003699FECF84B195B1E7CF81E090E8E4CF8D
:100A1000E2EEF1E01382128287E693E090938C007D
:100A200080938B0082E392E090938100809380001A
:100A300089E392E0909383008093820083EE92E0BA
:100A4000909385008093840087E690E09183808373
:100A5000E1E9F0E010821182128213828CED95E0C0
:100A6000A0E0B0E084839583A683B78365E089EC3A
:100A700090E011DD61E082EB90E00DDD64E08BE958
:100A800090E009CD991B79E004C0991F961708F0F2
:100A9000961B881F7A95C9F780950895EE0FFF1F62
:100AA0000590F491E02D099481E090E0F89400C065
:040AB000F894FFCFE8
:0C0AB40001800400000000480244000023
:00000001FF
